{
	"contracts/solidity_by_example/Loop.sol": {
		"Loop": {
			"abi": [
				{
					"inputs": [
						{
							"internalType": "uint256",
							"name": "_x",
							"type": "uint256"
						}
					],
					"name": "addtotal",
					"outputs": [
						{
							"internalType": "uint256",
							"name": "",
							"type": "uint256"
						}
					],
					"stateMutability": "pure",
					"type": "function"
				},
				{
					"inputs": [],
					"name": "test1",
					"outputs": [
						{
							"internalType": "uint256",
							"name": "",
							"type": "uint256"
						}
					],
					"stateMutability": "pure",
					"type": "function"
				}
			],
			"devdoc": {
				"kind": "dev",
				"methods": {},
				"version": 1
			},
			"evm": {
				"assembly": "    /* \"contracts/solidity_by_example/Loop.sol\":59:417  contract Loop{... */\n  mstore(0x40, 0x80)\n  callvalue\n  dup1\n  iszero\n  tag_1\n  jumpi\n  revert(0x00, 0x00)\ntag_1:\n  pop\n  dataSize(sub_0)\n  dup1\n  dataOffset(sub_0)\n  0x00\n  codecopy\n  0x00\n  return\nstop\n\nsub_0: assembly {\n        /* \"contracts/solidity_by_example/Loop.sol\":59:417  contract Loop{... */\n      mstore(0x40, 0x80)\n      callvalue\n      dup1\n      iszero\n      tag_1\n      jumpi\n      revert(0x00, 0x00)\n    tag_1:\n      pop\n      jumpi(tag_2, lt(calldatasize, 0x04))\n      shr(0xe0, calldataload(0x00))\n      dup1\n      0x6b59084d\n      eq\n      tag_3\n      jumpi\n      dup1\n      0x70eaf299\n      eq\n      tag_4\n      jumpi\n    tag_2:\n      revert(0x00, 0x00)\n        /* \"contracts/solidity_by_example/Loop.sol\":266:406  function test1() public pure returns (uint){... */\n    tag_3:\n      tag_5\n      tag_6\n      jump\t// in\n    tag_5:\n      mload(0x40)\n      tag_7\n      swap2\n      swap1\n      tag_8\n      jump\t// in\n    tag_7:\n      mload(0x40)\n      dup1\n      swap2\n      sub\n      swap1\n      return\n        /* \"contracts/solidity_by_example/Loop.sol\":85:258  function addtotal(uint _x) public pure  returns (uint) {... */\n    tag_4:\n      tag_9\n      0x04\n      dup1\n      calldatasize\n      sub\n      dup2\n      add\n      swap1\n      tag_10\n      swap2\n      swap1\n      tag_11\n      jump\t// in\n    tag_10:\n      tag_12\n      jump\t// in\n    tag_9:\n      mload(0x40)\n      tag_13\n      swap2\n      swap1\n      tag_8\n      jump\t// in\n    tag_13:\n      mload(0x40)\n      dup1\n      swap2\n      sub\n      swap1\n      return\n        /* \"contracts/solidity_by_example/Loop.sol\":266:406  function test1() public pure returns (uint){... */\n    tag_6:\n        /* \"contracts/solidity_by_example/Loop.sol\":304:308  uint */\n      0x00\n        /* \"contracts/solidity_by_example/Loop.sol\":320:326  uint a */\n      0x00\n        /* \"contracts/solidity_by_example/Loop.sol\":327:328  1 */\n      0x01\n        /* \"contracts/solidity_by_example/Loop.sol\":320:328  uint a=1 */\n      swap1\n      pop\n        /* \"contracts/solidity_by_example/Loop.sol\":339:380  while(a<10){... */\n    tag_15:\n        /* \"contracts/solidity_by_example/Loop.sol\":347:349  10 */\n      0x0a\n        /* \"contracts/solidity_by_example/Loop.sol\":345:346  a */\n      dup2\n        /* \"contracts/solidity_by_example/Loop.sol\":345:349  a<10 */\n      lt\n        /* \"contracts/solidity_by_example/Loop.sol\":339:380  while(a<10){... */\n      iszero\n      tag_16\n      jumpi\n        /* \"contracts/solidity_by_example/Loop.sol\":365:368  a++ */\n      dup1\n      dup1\n      tag_17\n      swap1\n      tag_18\n      jump\t// in\n    tag_17:\n      swap2\n      pop\n      pop\n        /* \"contracts/solidity_by_example/Loop.sol\":339:380  while(a<10){... */\n      jump(tag_15)\n    tag_16:\n        /* \"contracts/solidity_by_example/Loop.sol\":397:398  a */\n      dup1\n        /* \"contracts/solidity_by_example/Loop.sol\":390:398  return a */\n      swap2\n      pop\n      pop\n        /* \"contracts/solidity_by_example/Loop.sol\":266:406  function test1() public pure returns (uint){... */\n      swap1\n      jump\t// out\n        /* \"contracts/solidity_by_example/Loop.sol\":85:258  function addtotal(uint _x) public pure  returns (uint) {... */\n    tag_12:\n        /* \"contracts/solidity_by_example/Loop.sol\":134:138  uint */\n      0x00\n        /* \"contracts/solidity_by_example/Loop.sol\":151:161  uint  numa */\n      0x00\n        /* \"contracts/solidity_by_example/Loop.sol\":176:182  uint i */\n      0x00\n        /* \"contracts/solidity_by_example/Loop.sol\":183:184  0 */\n      0x00\n        /* \"contracts/solidity_by_example/Loop.sol\":176:184  uint i=0 */\n      swap1\n      pop\n        /* \"contracts/solidity_by_example/Loop.sol\":172:229  for(uint i=0;i<=_x;i++){... */\n    tag_20:\n        /* \"contracts/solidity_by_example/Loop.sol\":188:190  _x */\n      dup4\n        /* \"contracts/solidity_by_example/Loop.sol\":185:186  i */\n      dup2\n        /* \"contracts/solidity_by_example/Loop.sol\":185:190  i<=_x */\n      gt\n        /* \"contracts/solidity_by_example/Loop.sol\":172:229  for(uint i=0;i<=_x;i++){... */\n      tag_21\n      jumpi\n        /* \"contracts/solidity_by_example/Loop.sol\":216:217  i */\n      dup1\n        /* \"contracts/solidity_by_example/Loop.sol\":210:217  numa+=i */\n      dup3\n      tag_23\n      swap2\n      swap1\n      tag_24\n      jump\t// in\n    tag_23:\n      swap2\n      pop\n        /* \"contracts/solidity_by_example/Loop.sol\":191:194  i++ */\n      dup1\n      dup1\n      tag_25\n      swap1\n      tag_18\n      jump\t// in\n    tag_25:\n      swap2\n      pop\n      pop\n        /* \"contracts/solidity_by_example/Loop.sol\":172:229  for(uint i=0;i<=_x;i++){... */\n      jump(tag_20)\n    tag_21:\n      pop\n        /* \"contracts/solidity_by_example/Loop.sol\":246:250  numa */\n      dup1\n        /* \"contracts/solidity_by_example/Loop.sol\":239:250  return numa */\n      swap2\n      pop\n      pop\n        /* \"contracts/solidity_by_example/Loop.sol\":85:258  function addtotal(uint _x) public pure  returns (uint) {... */\n      swap2\n      swap1\n      pop\n      jump\t// out\n        /* \"#utility.yul\":7:84   */\n    tag_26:\n        /* \"#utility.yul\":44:51   */\n      0x00\n        /* \"#utility.yul\":73:78   */\n      dup2\n        /* \"#utility.yul\":62:78   */\n      swap1\n      pop\n        /* \"#utility.yul\":7:84   */\n      swap2\n      swap1\n      pop\n      jump\t// out\n        /* \"#utility.yul\":90:208   */\n    tag_27:\n        /* \"#utility.yul\":177:201   */\n      tag_37\n        /* \"#utility.yul\":195:200   */\n      dup2\n        /* \"#utility.yul\":177:201   */\n      tag_26\n      jump\t// in\n    tag_37:\n        /* \"#utility.yul\":172:175   */\n      dup3\n        /* \"#utility.yul\":165:202   */\n      mstore\n        /* \"#utility.yul\":90:208   */\n      pop\n      pop\n      jump\t// out\n        /* \"#utility.yul\":214:436   */\n    tag_8:\n        /* \"#utility.yul\":307:311   */\n      0x00\n        /* \"#utility.yul\":345:347   */\n      0x20\n        /* \"#utility.yul\":334:343   */\n      dup3\n        /* \"#utility.yul\":330:348   */\n      add\n        /* \"#utility.yul\":322:348   */\n      swap1\n      pop\n        /* \"#utility.yul\":358:429   */\n      tag_39\n        /* \"#utility.yul\":426:427   */\n      0x00\n        /* \"#utility.yul\":415:424   */\n      dup4\n        /* \"#utility.yul\":411:428   */\n      add\n        /* \"#utility.yul\":402:408   */\n      dup5\n        /* \"#utility.yul\":358:429   */\n      tag_27\n      jump\t// in\n    tag_39:\n        /* \"#utility.yul\":214:436   */\n      swap3\n      swap2\n      pop\n      pop\n      jump\t// out\n        /* \"#utility.yul\":523:640   */\n    tag_29:\n        /* \"#utility.yul\":632:633   */\n      0x00\n        /* \"#utility.yul\":629:630   */\n      0x00\n        /* \"#utility.yul\":622:634   */\n      revert\n        /* \"#utility.yul\":769:891   */\n    tag_31:\n        /* \"#utility.yul\":842:866   */\n      tag_44\n        /* \"#utility.yul\":860:865   */\n      dup2\n        /* \"#utility.yul\":842:866   */\n      tag_26\n      jump\t// in\n    tag_44:\n        /* \"#utility.yul\":835:840   */\n      dup2\n        /* \"#utility.yul\":832:867   */\n      eq\n        /* \"#utility.yul\":822:885   */\n      tag_45\n      jumpi\n        /* \"#utility.yul\":881:882   */\n      0x00\n        /* \"#utility.yul\":878:879   */\n      0x00\n        /* \"#utility.yul\":871:883   */\n      revert\n        /* \"#utility.yul\":822:885   */\n    tag_45:\n        /* \"#utility.yul\":769:891   */\n      pop\n      jump\t// out\n        /* \"#utility.yul\":897:1036   */\n    tag_32:\n        /* \"#utility.yul\":943:948   */\n      0x00\n        /* \"#utility.yul\":981:987   */\n      dup2\n        /* \"#utility.yul\":968:988   */\n      calldataload\n        /* \"#utility.yul\":959:988   */\n      swap1\n      pop\n        /* \"#utility.yul\":997:1030   */\n      tag_47\n        /* \"#utility.yul\":1024:1029   */\n      dup2\n        /* \"#utility.yul\":997:1030   */\n      tag_31\n      jump\t// in\n    tag_47:\n        /* \"#utility.yul\":897:1036   */\n      swap3\n      swap2\n      pop\n      pop\n      jump\t// out\n        /* \"#utility.yul\":1042:1371   */\n    tag_11:\n        /* \"#utility.yul\":1101:1107   */\n      0x00\n        /* \"#utility.yul\":1150:1152   */\n      0x20\n        /* \"#utility.yul\":1138:1147   */\n      dup3\n        /* \"#utility.yul\":1129:1136   */\n      dup5\n        /* \"#utility.yul\":1125:1148   */\n      sub\n        /* \"#utility.yul\":1121:1153   */\n      slt\n        /* \"#utility.yul\":1118:1237   */\n      iszero\n      tag_49\n      jumpi\n        /* \"#utility.yul\":1156:1235   */\n      tag_50\n      tag_29\n      jump\t// in\n    tag_50:\n        /* \"#utility.yul\":1118:1237   */\n    tag_49:\n        /* \"#utility.yul\":1276:1277   */\n      0x00\n        /* \"#utility.yul\":1301:1354   */\n      tag_51\n        /* \"#utility.yul\":1346:1353   */\n      dup5\n        /* \"#utility.yul\":1337:1343   */\n      dup3\n        /* \"#utility.yul\":1326:1335   */\n      dup6\n        /* \"#utility.yul\":1322:1344   */\n      add\n        /* \"#utility.yul\":1301:1354   */\n      tag_32\n      jump\t// in\n    tag_51:\n        /* \"#utility.yul\":1291:1354   */\n      swap2\n      pop\n        /* \"#utility.yul\":1247:1364   */\n      pop\n        /* \"#utility.yul\":1042:1371   */\n      swap3\n      swap2\n      pop\n      pop\n      jump\t// out\n        /* \"#utility.yul\":1377:1557   */\n    tag_33:\n        /* \"#utility.yul\":1425:1502   */\n      0x4e487b7100000000000000000000000000000000000000000000000000000000\n        /* \"#utility.yul\":1422:1423   */\n      0x00\n        /* \"#utility.yul\":1415:1503   */\n      mstore\n        /* \"#utility.yul\":1522:1526   */\n      0x11\n        /* \"#utility.yul\":1519:1520   */\n      0x04\n        /* \"#utility.yul\":1512:1527   */\n      mstore\n        /* \"#utility.yul\":1546:1550   */\n      0x24\n        /* \"#utility.yul\":1543:1544   */\n      0x00\n        /* \"#utility.yul\":1536:1551   */\n      revert\n        /* \"#utility.yul\":1563:1796   */\n    tag_18:\n        /* \"#utility.yul\":1602:1605   */\n      0x00\n        /* \"#utility.yul\":1625:1649   */\n      tag_54\n        /* \"#utility.yul\":1643:1648   */\n      dup3\n        /* \"#utility.yul\":1625:1649   */\n      tag_26\n      jump\t// in\n    tag_54:\n        /* \"#utility.yul\":1616:1649   */\n      swap2\n      pop\n        /* \"#utility.yul\":1671:1737   */\n      0xffffffffffffffffffffffffffffffffffffffffffffffffffffffffffffffff\n        /* \"#utility.yul\":1664:1669   */\n      dup3\n        /* \"#utility.yul\":1661:1738   */\n      sub\n        /* \"#utility.yul\":1658:1761   */\n      tag_55\n      jumpi\n        /* \"#utility.yul\":1741:1759   */\n      tag_56\n      tag_33\n      jump\t// in\n    tag_56:\n        /* \"#utility.yul\":1658:1761   */\n    tag_55:\n        /* \"#utility.yul\":1788:1789   */\n      0x01\n        /* \"#utility.yul\":1781:1786   */\n      dup3\n        /* \"#utility.yul\":1777:1790   */\n      add\n        /* \"#utility.yul\":1770:1790   */\n      swap1\n      pop\n        /* \"#utility.yul\":1563:1796   */\n      swap2\n      swap1\n      pop\n      jump\t// out\n        /* \"#utility.yul\":1802:1993   */\n    tag_24:\n        /* \"#utility.yul\":1842:1845   */\n      0x00\n        /* \"#utility.yul\":1861:1881   */\n      tag_58\n        /* \"#utility.yul\":1879:1880   */\n      dup3\n        /* \"#utility.yul\":1861:1881   */\n      tag_26\n      jump\t// in\n    tag_58:\n        /* \"#utility.yul\":1856:1881   */\n      swap2\n      pop\n        /* \"#utility.yul\":1895:1915   */\n      tag_59\n        /* \"#utility.yul\":1913:1914   */\n      dup4\n        /* \"#utility.yul\":1895:1915   */\n      tag_26\n      jump\t// in\n    tag_59:\n        /* \"#utility.yul\":1890:1915   */\n      swap3\n      pop\n        /* \"#utility.yul\":1938:1939   */\n      dup3\n        /* \"#utility.yul\":1935:1936   */\n      dup3\n        /* \"#utility.yul\":1931:1940   */\n      add\n        /* \"#utility.yul\":1924:1940   */\n      swap1\n      pop\n        /* \"#utility.yul\":1959:1962   */\n      dup1\n        /* \"#utility.yul\":1956:1957   */\n      dup3\n        /* \"#utility.yul\":1953:1963   */\n      gt\n        /* \"#utility.yul\":1950:1986   */\n      iszero\n      tag_60\n      jumpi\n        /* \"#utility.yul\":1966:1984   */\n      tag_61\n      tag_33\n      jump\t// in\n    tag_61:\n        /* \"#utility.yul\":1950:1986   */\n    tag_60:\n        /* \"#utility.yul\":1802:1993   */\n      swap3\n      swap2\n      pop\n      pop\n      jump\t// out\n\n    auxdata: 0xa264697066735822122050d08652128c47f259431207ce5f8d8e2e5876bfdf927b409d3b10047eeb00e164736f6c634300081e0033\n}\n",
				"bytecode": {
					"linkReferences": {},
					"object": "6080604052348015600e575f5ffd5b506102508061001c5f395ff3fe608060405234801561000f575f5ffd5b5060043610610034575f3560e01c80636b59084d1461003857806370eaf29914610056575b5f5ffd5b610040610086565b60405161004d9190610101565b60405180910390f35b610070600480360381019061006b9190610148565b6100b0565b60405161007d9190610101565b60405180910390f35b5f5f600190505b600a8110156100a95780806100a1906101a0565b91505061008d565b8091505090565b5f5f5f5f90505b8381116100df5780826100ca91906101e7565b915080806100d7906101a0565b9150506100b7565b5080915050919050565b5f819050919050565b6100fb816100e9565b82525050565b5f6020820190506101145f8301846100f2565b92915050565b5f5ffd5b610127816100e9565b8114610131575f5ffd5b50565b5f813590506101428161011e565b92915050565b5f6020828403121561015d5761015c61011a565b5b5f61016a84828501610134565b91505092915050565b7f4e487b71000000000000000000000000000000000000000000000000000000005f52601160045260245ffd5b5f6101aa826100e9565b91507fffffffffffffffffffffffffffffffffffffffffffffffffffffffffffffffff82036101dc576101db610173565b5b600182019050919050565b5f6101f1826100e9565b91506101fc836100e9565b925082820190508082111561021457610213610173565b5b9291505056fea264697066735822122050d08652128c47f259431207ce5f8d8e2e5876bfdf927b409d3b10047eeb00e164736f6c634300081e0033",
					"opcodes": "PUSH1 0x80 PUSH1 0x40 MSTORE CALLVALUE DUP1 ISZERO PUSH1 0xE JUMPI PUSH0 PUSH0 REVERT JUMPDEST POP PUSH2 0x250 DUP1 PUSH2 0x1C PUSH0 CODECOPY PUSH0 RETURN INVALID PUSH1 0x80 PUSH1 0x40 MSTORE CALLVALUE DUP1 ISZERO PUSH2 0xF JUMPI PUSH0 PUSH0 REVERT JUMPDEST POP PUSH1 0x4 CALLDATASIZE LT PUSH2 0x34 JUMPI PUSH0 CALLDATALOAD PUSH1 0xE0 SHR DUP1 PUSH4 0x6B59084D EQ PUSH2 0x38 JUMPI DUP1 PUSH4 0x70EAF299 EQ PUSH2 0x56 JUMPI JUMPDEST PUSH0 PUSH0 REVERT JUMPDEST PUSH2 0x40 PUSH2 0x86 JUMP JUMPDEST PUSH1 0x40 MLOAD PUSH2 0x4D SWAP2 SWAP1 PUSH2 0x101 JUMP JUMPDEST PUSH1 0x40 MLOAD DUP1 SWAP2 SUB SWAP1 RETURN JUMPDEST PUSH2 0x70 PUSH1 0x4 DUP1 CALLDATASIZE SUB DUP2 ADD SWAP1 PUSH2 0x6B SWAP2 SWAP1 PUSH2 0x148 JUMP JUMPDEST PUSH2 0xB0 JUMP JUMPDEST PUSH1 0x40 MLOAD PUSH2 0x7D SWAP2 SWAP1 PUSH2 0x101 JUMP JUMPDEST PUSH1 0x40 MLOAD DUP1 SWAP2 SUB SWAP1 RETURN JUMPDEST PUSH0 PUSH0 PUSH1 0x1 SWAP1 POP JUMPDEST PUSH1 0xA DUP2 LT ISZERO PUSH2 0xA9 JUMPI DUP1 DUP1 PUSH2 0xA1 SWAP1 PUSH2 0x1A0 JUMP JUMPDEST SWAP2 POP POP PUSH2 0x8D JUMP JUMPDEST DUP1 SWAP2 POP POP SWAP1 JUMP JUMPDEST PUSH0 PUSH0 PUSH0 PUSH0 SWAP1 POP JUMPDEST DUP4 DUP2 GT PUSH2 0xDF JUMPI DUP1 DUP3 PUSH2 0xCA SWAP2 SWAP1 PUSH2 0x1E7 JUMP JUMPDEST SWAP2 POP DUP1 DUP1 PUSH2 0xD7 SWAP1 PUSH2 0x1A0 JUMP JUMPDEST SWAP2 POP POP PUSH2 0xB7 JUMP JUMPDEST POP DUP1 SWAP2 POP POP SWAP2 SWAP1 POP JUMP JUMPDEST PUSH0 DUP2 SWAP1 POP SWAP2 SWAP1 POP JUMP JUMPDEST PUSH2 0xFB DUP2 PUSH2 0xE9 JUMP JUMPDEST DUP3 MSTORE POP POP JUMP JUMPDEST PUSH0 PUSH1 0x20 DUP3 ADD SWAP1 POP PUSH2 0x114 PUSH0 DUP4 ADD DUP5 PUSH2 0xF2 JUMP JUMPDEST SWAP3 SWAP2 POP POP JUMP JUMPDEST PUSH0 PUSH0 REVERT JUMPDEST PUSH2 0x127 DUP2 PUSH2 0xE9 JUMP JUMPDEST DUP2 EQ PUSH2 0x131 JUMPI PUSH0 PUSH0 REVERT JUMPDEST POP JUMP JUMPDEST PUSH0 DUP2 CALLDATALOAD SWAP1 POP PUSH2 0x142 DUP2 PUSH2 0x11E JUMP JUMPDEST SWAP3 SWAP2 POP POP JUMP JUMPDEST PUSH0 PUSH1 0x20 DUP3 DUP5 SUB SLT ISZERO PUSH2 0x15D JUMPI PUSH2 0x15C PUSH2 0x11A JUMP JUMPDEST JUMPDEST PUSH0 PUSH2 0x16A DUP5 DUP3 DUP6 ADD PUSH2 0x134 JUMP JUMPDEST SWAP2 POP POP SWAP3 SWAP2 POP POP JUMP JUMPDEST PUSH32 0x4E487B7100000000000000000000000000000000000000000000000000000000 PUSH0 MSTORE PUSH1 0x11 PUSH1 0x4 MSTORE PUSH1 0x24 PUSH0 REVERT JUMPDEST PUSH0 PUSH2 0x1AA DUP3 PUSH2 0xE9 JUMP JUMPDEST SWAP2 POP PUSH32 0xFFFFFFFFFFFFFFFFFFFFFFFFFFFFFFFFFFFFFFFFFFFFFFFFFFFFFFFFFFFFFFFF DUP3 SUB PUSH2 0x1DC JUMPI PUSH2 0x1DB PUSH2 0x173 JUMP JUMPDEST JUMPDEST PUSH1 0x1 DUP3 ADD SWAP1 POP SWAP2 SWAP1 POP JUMP JUMPDEST PUSH0 PUSH2 0x1F1 DUP3 PUSH2 0xE9 JUMP JUMPDEST SWAP2 POP PUSH2 0x1FC DUP4 PUSH2 0xE9 JUMP JUMPDEST SWAP3 POP DUP3 DUP3 ADD SWAP1 POP DUP1 DUP3 GT ISZERO PUSH2 0x214 JUMPI PUSH2 0x213 PUSH2 0x173 JUMP JUMPDEST JUMPDEST SWAP3 SWAP2 POP POP JUMP INVALID LOG2 PUSH5 0x6970667358 0x22 SLT KECCAK256 POP 0xD0 DUP7 MSTORE SLT DUP13 SELFBALANCE CALLCODE MSIZE NUMBER SLT SMOD 0xCE PUSH0 DUP14 DUP15 0x2E PC PUSH23 0xBFDF927B409D3B10047EEB00E164736F6C634300081E00 CALLER "
				},
				"gasEstimates": {
					"creation": {
						"codeDepositCost": "118400",
						"executionCost": "163",
						"totalCost": "118563"
					},
					"external": {
						"addtotal(uint256)": "infinite",
						"test1()": "infinite"
					}
				},
				"methodIdentifiers": {
					"addtotal(uint256)": "70eaf299",
					"test1()": "6b59084d"
				}
			},
			"storageLayout": {
				"storage": [],
				"types": null
			},
			"userdoc": {
				"kind": "user",
				"methods": {},
				"version": 1
			}
		}
	}
}